:1000000037C0A2C250C04FC04EC04DC04CC04BC044
:100010004AC092C548C047C046C045C044C043C05E
:1000200042C041C040C004030904100358006900E5
:1000300061006F00430075006900120355002D0038
:100040007200670062004C0045004400120110017C
:10005000FF000008C016DC050201010200010902D0
:1000600012000101008019090400000000000000D6
:1000700011241FBECFE5D4E0DEBFCDBF10E0A0E667
:10008000B0E0E0E9FCE002C005900D92A236B107B5
:10009000D9F710E0A2E6B0E001C01D92A639B10781
:1000A000E1F707D4F3C5ACCFDF93CF93CDB7DEB77D
:1000B0002C970FB6F894DEBF0FBECDBF9987888707
:1000C0006A878A858F8380917600909177009E83DE
:1000D0008D8380916200882F90E0807490700097EB
:1000E000B9F118C08D819E819B838A83EA81FB814F
:1000F0008491898389818C83E885F9858C818083CB
:10010000888599850196998788878D819E8101963A
:100110009E838D838F818B878B85882311F081E06F
:100120008B878B859F8191509F838823D9F61DC033
:10013000ED81FE818081E885F985808388859985B8
:100140000196998788878D819E8101969E838D83F4
:100150008F818C878C85882311F081E08C878C853A
:100160009F8191509F83882319F78D819E81909361
:100170007700809376008A852C960FB6F894DEBFC0
:100180000FBECDBFCF91DF910895DF93CF93CDB751
:10019000DEB72C970FB6F894DEBF0FBECDBF9A879F
:1001A00089876B8789859A8598878F831E8280E8E7
:1001B0008D83809174008D3209F0E4C08AE58093CC
:1001C00061008B85883009F0DDC0EF81F885808182
:1001D00080768C838C81882309F0C1C081E790E010
:1001E0009B838A83EA81FB811082EF81F88581817C
:1001F000882399F4EF81F88580818F7189838A81C2
:100200009B81FC013196108282E08E838A819B81E2
:100210009093770080937600A6C0EF81F885818166
:10022000853031F4EF81F8858281809379009BC01D
:10023000EF81F8858181863009F066C080EC8D837E
:10024000EF81F8858381813069F48CE490E09B83B1
:100250008A8382E18E838A819B8190937700809349
:10026000760081C0EF81F8858381823069F48EE564
:1002700090E09B838A8382E18E838A819B81909325
:100280007700809376006FC0EF81F885838183309B
:10029000B9F5EF81F8858281882369F486E290E0E0
:1002A0009B838A8384E08E838A819B8190937700ED
:1002B0008093760058C0EF81F8858281813069F49F
:1002C0008AE290E09B838A8380E18E838A819B818E
:1002D000909377008093760046C0EF81F885828105
:1002E000823009F040C08AE390E09B838A8382E1F8
:1002F0008E838A819B81909377008093760033C0B0
:10030000EF81F88583812FC0EF81F8858181883066
:1003100069F48BE790E09B838A8381E08E838A81F6
:100320009B8190937700809376001DC0EF81F885C4
:100330008181893031F4EF81F885828180937B005F
:1003400012C0EF81F88581818A3069F481E08E8363
:100350008A819B81909377008093760004C0898581
:100360009A856AD28E83EF81F8858781882351F43C
:10037000EF81F88596818E81981720F4EF81F885BA
:1003800086818E838D81809362008E818093600050
:100390002C960FB6F894DEBF0FBECDBFCF91DF9184
:1003A0000895DF93CF9300D000D0CDB7DEB7809112
:1003B00060008C838C81893010F088E08C83909170
:1003C00060008C81292F281B822F809360008BE492
:1003D000898380916200882F90E0817090708823DB
:1003E00011F083EC8983809162008F5F80936200BB
:1003F00089E690E06C8158DE8B838B81893070F4C4
:1004000089E690E06B819CD08B818C5F8A838B81A5
:10041000883048F48FEF8093600005C08EE18A83B6
:100420008FEF809360008981809368008A81809338
:1004300061000F900F900F900F90CF91DF91089572
:10044000DF93CF9300D0CDB7DEB7809178008A8359
:100450008A8118169CF480917500282F30E08CE07A
:1004600090E0821B930B9C0124583F4F8A81482FB8
:100470004350C901642F89DE109278008091610099
:10048000882F90E080719070009729F08091600033
:100490008F3F09F086DF8AE0898306C014D0882365
:1004A00031F489818150898389818823B9F78981D1
:1004B000882321F410927900109273000F900F900E
:1004C000CF91DF910895DF93CF930F92CDB7DEB731
:1004D000E0E3F0E080818570898389810F90CF917E
:1004E000DF910895DF93CF93CDB7DEB7A5E5B0E0F8
:1004F000E5E5F0E0808183608C93ABE5B0E0EBE56F
:10050000F0E0808180648C93CF91DF910895A82FD3
:10051000B92F8FEF9FEF41E050EA615070F02D91BD
:1005200038E0722F782796958795269570FF02C040
:10053000842795273A95A9F7F0CF8095909508954F
:10054000E6DF8D939D930895CF93CFB7CF93809B94
:10055000FECF809B09C0809B07C0809B05C0809B0D
:1005600003C0809B01C09EC0DF93C0917500DD2752
:10057000C458DF4F809B02C0DF91EBCF2F930F93C6
:100580001F9300B32FEF00FB20F94F933F9310B35D
:100590004FEF012700FB21F93BE031C04E7F012FD7
:1005A00010B3216028C0102F4D7F2260000000B3DF
:1005B00029C04B7F2460012F000010B32BC010B363
:1005C000477F28602AC04F7E00B320612CC04F7D3A
:1005D00010B320622FC04F7B00B3206432C042278B
:1005E00000B349934FEF0000102710FB20F910B320
:1005F0001570A9F1297F91F2012700FB21F900B3C1
:10060000237F89F23150F0F1102710FB22F910B34B
:10061000277E79F2012700FB23F92F7C81F200B3BA
:10062000102710FB24F92F7971F200C010B30127B5
:1006300000FB25F92F7359F200C000B3102710FBFF
:1006400026F9223040F200C010B3012700FB27F941
:10065000243028F64F77206810B30000F9CF3B50C4
:100660003195333010E41ABFB8F0C31BD040088175
:10067000033C41F10B3431F11981412F1F77209157
:100680007300121731F4093691F10D3279F0013E01
:1006900069F0222720937A003F914F911F910F918B
:1006A0002F91DF91CF91CFBFCF91189500937A0012
:1006B0003F914F911F910F912F91DF91CAB7C6FDC6
:1006C00046CFF0CF00917A00002331F310917800EB
:1006D000112349F534304AF13093780000937400C7
:1006E000109175003BE0311B309375001EC00091E6
:1006F00078000130C4F40AE53091610034FD17C080
:1007000000936100C8E6D0E016C0052710E002BBE8
:100710001FC0052722C0052727C005272CC0052795
:1007200010E002BB33C04AE503C042ED01C0432FD5
:10073000C4E1D0E032E011B31560909A02B311BB6E
:100740005F9355E020E820FF052702BB279517950A
:100750001C3FD8F620FF0527279502BB17951C3FA5
:10076000C0F620FF05272795179502BB1C3F98F67A
:1007700020FF0527279517951C3F02BB70F600C088
:10078000499120FF052702BB279517951C3F38F696
:1007900020FF0527279502BB17951C3F38F520FF42
:1007A00005272795179502BB1C3F10F520FF05274D
:1007B000279517951C3F02BBE8F4242F3A9519F6AC
:1007C0000A7F5F9102BB00C010917900C651D040F2
:1007D00011F01093730010E41ABF016011B31A7F77
:1007E000402F4A7F02BB11BB42BB56CF0527D3CF58
:1007F0000527D8CF0527DDCFDF93CF93CDB7DEB761
:10080000E2E3F0E01082E8E3F0E01082E1E3F0E000
:100810008BEF8083E7E3F0E01082E1E3F0E080EE2D
:100820008083E3E5F0E081E08083E9E5F0E081E0CA
:100830008083CF91DF910895DF93CF9300D000D0D4
:10084000CDB7DEB79C838B838B819C819A83898310
:10085000E981FA818181882399F081E08093920077
:10086000E981FA81828180939500E981FA8183810F
:1008700080939300E981FA8184818093940011C070
:1008800010929200E981FA81828180936300E9816C
:10089000FA81838180936400E981FA818481809365
:1008A000650080E00F900F900F900F90CF91DF9137
:1008B0000895DF93CF93CDB7DEB7F8949DDF12DEB6
:1008C000789410929500109293001092940081E019
:1008D00080939200B5DD809192008823D9F3109225
:1008E000920080919500909193004091940023E6AE
:1008F00030E0692F01D0EECFDF93CF93CDB7DEB7D5
:1009000068970FB6F894DEBF0FBECDBF8C876D879A
:100910004E87388B2F871B861A8619868D858823EC
:1009200039F48E85898789858A878A858B87EFC088
:100930008C859BE2692F77D188878C859BE2692F14
:1009400072D1892F8F838E85482F50E08D85282F77
:1009500030E08FEF90E0821B930B9C01429FC0011F
:10096000439F900D529F900D11249C8B8B8B4B8934
:100970005C89552334F48B899C8981509F4F9C8BD3
:100980008B8B2B893C89832F992787FD9A959E8392
:100990008D838E85E82FF0E08D85282F30E08F81C4
:1009A000882F90E0A901489F9001499F300D589FE2
:1009B000300D112486ED99E2821B930B2AE230E080
:1009C000B9013DD1CB019C01E29FC001E39F900D95
:1009D000F29F900D11249E8B8D8B4D895E8955233E
:1009E00034F48D899E8981509F4F9E8B8D8B2D89EC
:1009F0003E89832F992787FD9A959C838B838E85CB
:100A0000E82FF0E08D85282F30E08F81882F90E04F
:100A10008A97AC01249FC001259F900D349F900DB3
:100A200011248A52964D2AE230E0B90108D1CB0157
:100A30009C01E29FC001E39F900DF29F900D112455
:100A4000988F8F8B4F89588D552334F48F89988DCB
:100A500081509F4F988F8F8B2F89388D832F9927A7
:100A600087FD9A959A8389838885482F50E05A8B11
:100A7000498B89899A898230910571F129893A894E
:100A8000233031055CF449895A8941155105B1F08B
:100A900089899A8981309105C1F039C029893A89BB
:100AA0002430310539F149895A8944305105DCF047
:100AB00089899A898530910521F129C08E858B8796
:100AC00089818A878D81898722C08B818B878E85DA
:100AD0008A878D8189871BC08D818B878E858A87C8
:100AE0008981898714C08D818B878B818A878E85C8
:100AF00089870DC089818B878D818A878E858987BB
:100B000006C08E858B878D818A878B818987EF854B
:100B1000F8898B858083EF85F8898A858183EF85C5
:100B2000F8898985828368960FB6F894DEBF0FBE78
:100B3000CDBFCF91DF9108951F920F920FB60F9204
:100B400011248F939F93AF93BF93EF93FF93DF9302
:100B5000CF9300D0CDB7DEB78091660089838981BD
:100B60008A838A81882311F081E08A839A8189812E
:100B70008F5F80936600992319F01092660044C03D
:100B80009091630080916700891740F4A2E3B0E080
:100B9000E2E3F0E0808180628C9307C0A2E3B0E0E2
:100BA000E2E3F0E080818F7D8C93909164008091EE
:100BB0006700891740F4A2E3B0E0E2E3F0E080814F
:100BC00080648C9307C0A2E3B0E0E2E3F0E08081B0
:100BD0008F7B8C939091650080916700891740F41A
:100BE000A2E3B0E0E2E3F0E0808180688C9307C08C
:100BF000A2E3B0E0E2E3F0E080818F778C93809114
:100C000067008F5F809367000F900F90CF91DF9107
:100C1000FF91EF91BF91AF919F918F910F900FBE78
:100C20000F901F901895991B79E004C0991F961793
:100C300008F0961B881F7A95C9F78095089597FB51
:100C4000092E07260AD077FD04D00CD006D000204C
:100C50001AF4709561957F4F0895F6F790958195F8
:100C60009F4F0895AA1BBB1B51E107C0AA1FBB1FC2
:100C7000A617B70710F0A61BB70B881F991F5A9528
:100C8000A9F780959095BC01CD010895F894FFCF08
:020C9000FF5A09
:00000001FF
