:100000004CC0E1C265C064C063C062C061C060C072
:100010005FC028C15DC05CC05BC05AC059C058C039
:1000200057C056C055C00600FF0901A101150026A2
:10003000FF00750895010900B20201C0040309041C
:1000400012035800690061006F0020006300750012
:100050006900140348004900440072006700620010
:100060004C00450044001201100100000008C016B9
:10007000DF050001010200010902220001010080E8
:10008000140904000001030000000921010100011E
:100090002216000705810308006411241FBECFE566
:1000A000D4E0DEBFCDBF10E0A0E6B0E0E4EAF8E0C7
:1000B00002C005900D92A236B107D9F710E0A2E672
:1000C000B0E001C01D92A33AB107E1F7FDD0E8C34B
:1000D00097CFFC01808180768034D9F49181913072
:1000E00051F410926C008FEF80936A0080936B0044
:1000F0009093690002C0923011F080E00895109250
:10010000670087E690E0909388008093870081E005
:10011000089581E080936900828180936C008381DF
:1001200080936A00848180936B0080E0089512BA06
:1001300018BA8BEF81BB17BA80EE81BB81E083BF19
:1001400089BF0895CF92DF92EF92FF920F931F9392
:10015000CF93DF93C82EE901662321F4842F942FD7
:10016000642F74C0E42EFF24062F10E08FEF90E080
:10017000801B910B9C012E9DC0012F9D900D3E9DDB
:10018000900D112460E071E064D3D62E8C2D6BE2CB
:1001900054D3E92FF0E0E09F9001E19F300DF09FF4
:1001A000300D112486ED99E2821B930B6AE270E018
:1001B00050D36E9DC0016F9D900D7E9D900D1124BA
:1001C00060E071E046D3362FBA97E09FC001E19F0F
:1001D000900DF09F900D11248A52964D6AE270E0C6
:1001E00038D36E9DC0016F9D900D7E9D900D1124A2
:1001F00060E071E02ED3262F8C2D6BE21ED382306F
:10020000B9F0833028F4882369F0813039F40DC0C7
:100210008430A9F0843080F08530A9F080E090E04F
:1002200060E014C0922F6D2D10C0832F6D2D02C081
:100230008D2D622F942F0AC08D2D932F02C0822FF7
:100240009D2D642F03C09D2D632F842F8883998358
:100250006A83DF91CF911F910F91FF90EF90DF9014
:10026000CF9008951F920F920FB60F9211248F9383
:100270009F93809165008F5F80936500815019F096
:10028000109265001AC090916600809162009817E4
:1002900010F4959A01C0959880916300981710F416
:1002A000969A01C0969880916400981710F4979AD6
:1002B00001C097989F5F909366009F918F910F90D8
:1002C0000FBE0F901F901895F89412BA18BA8BEFC2
:1002D00081BB17BA80EE81BB81E083BF89BF29D083
:1002E000889A20E048EB5BE004C0A895CA0101971A
:1002F000F1F72150D1F78898789410926C0086E934
:1003000080936A008FEF80936B0081E08093690097
:100310001DD0809169008823D9F3109269008091E3
:100320006C0060916A0040916B0022E630E00ADFC9
:10033000EFCF85B7826085BF8BB780648BBF8BE4BE
:10034000809379008AE58093780008951F93CF9376
:10035000DF9390918900935097FDA0C02091860073
:10036000809185008D3209F097C0983009F094C0D3
:10037000CCE0D0E0C21BD109C357DF4F83EC8093A0
:100380006D008AE580936000109268008881807615
:1003900021F0CE019EDE282F76C09A811092760041
:1003A0008981882321F41092770022E066C085308D
:1003B00019F490938A0060C0863009F049C08B819F
:1003C000813019F486E690E01AC0823041F488E763
:1003D00090E0909388008093870022E235C08330BC
:1003E000F1F4992341F48CE390E09093880080939A
:1003F000870024E029C0913041F480E490E090939C
:1004000088008093870022E11FC09230E1F482E5EA
:1004100090E0909388008093870024E115C081329A
:1004200041F48AE890E0909388008093870029E067
:100430000BC0823241F486E290E090938800809372
:10044000870026E101C020E080E4809368001BC0A3
:10045000883021F421E08CE890E011C0893019F453
:1004600090938C0009C08A3011F421E006C08B30D3
:1004700019F48BE48093790020E086E790E0909374
:100480008800809387008F81882321F48E818217D2
:1004900008F4282F20936100109289008091600059
:1004A00084FF49C0809161008F3F09F444C0182F38
:1004B000893008F018E0811B8093610080916D0005
:1004C00098E8892780936D00112341F120918700DE
:1004D000309188008091680086FF0DC0AEE6B0E0E4
:1004E00080E090E0F901E80FF91FE491ED930196A7
:1004F0001817C1F708C0912FD901EEE6F0E08D91F1
:1005000081939150E1F71150812F90E01F5F019688
:10051000820F931F90938800809387008EE690E06F
:10052000612F4DD0612F6C5F6C3019F08FEF80938D
:1005300061006093600094E180B3857031F4915064
:10054000D9F710928A0010928400DF91CF911F9109
:1005500008951F93DC01162F8091780084FF07C057
:100560008091790098E889278093790003C08AE513
:1005700080937800912FEAE7F0E08D91819391507C
:10058000E1F78AE790E0612F1AD01C5F10937800A2
:100590001F910895A82FB92F80E090E041E050EA24
:1005A00060956F5F58F42D9138EF82279795879566
:1005B00010F0842795273F5FC8F3F3CF0895EADF53
:1005C0008D939D930895CF93CFB7CF93C395809B81
:1005D000E9F7809B09C0809B07C0809B05C0809B7A
:1005E00003C0809B01C0A3C0DF93C0918600DD27BC
:1005F000C357DF4F809B02C0DF91EBCF2F930F9348
:100600001F9300B32FEF00FB20F94F933F9310B3DC
:100610004FEF012700FB21F93BE031C04E7F012F56
:1006200010B3216028C0102F4D7F2260000000B35E
:1006300029C04B7F2460012F000010B32BC010B3E2
:10064000477F28602AC04F7E00B320612CC04F7DB9
:1006500010B320622FC04F7B00B3206432C042270A
:1006600000B349934FEF0000102710FB20F910B39F
:100670001570C9F1297F91F2012700FB21F900B320
:10068000237F89F2315058F1102710FB22F910B363
:10069000277E79F2012700FB23F92F7C81F200B33A
:1006A000102710FB24F92F7971F200C010B3012735
:1006B00000FB25F92F7359F200C000B3102710FB7F
:1006C00026F9223040F200C010B3012700FB27F9C1
:1006D000243028F64F77206810B30000F9CF10E4DB
:1006E0001ABF002719C03B503195C31BD04010E4FE
:1006F0001ABF0881033CF9F00B34E9F02091840023
:100700001981110F1213EDCF4A81441F093641F1AF
:100710000D3211F0013E29F700938B003F914F916C
:100720001F910F912F91DF91CAB7C6FD4FCFCF9187
:10073000CFBFCF91189520918B00222379F3109190
:100740008900112369F534306AF1309389002093D0
:100750008500109186003BE0311B3093860022C05B
:10076000009189000130E4F40AE54F7049F43091BA
:10077000600034FD19C000936000CDE6D0E018C0E1
:100780003091780034FD10C000937800C9E7D0E0C4
:100790000FC02795A8F45150A9F4220F0000F9CFFB
:1007A0004AE503C042ED01C0432FC4E1D0E032E08E
:1007B00011B31560909A11BB02B320E415E05F936A
:1007C000012756E002BB279520F4515021F4220F57
:1007D000F9CF012756E000003B5A02BBD0F2279523
:1007E00028F4515029F4220F0000F9CF012756E0D8
:1007F000279502BB20F4515021F4220FF9CF012795
:1008000056E02991332302BB21F60A7F10918A001A
:10081000110FC651D04002BB11F01093840010E4B8
:100820001ABF016011B31A7F402F4A7F5F9100C049
:1008300000C002BB11BB42BB71CF991B79E004C061
:10084000991F961708F0961B881F7A95C9F780950F
:10085000089597FB092E07260AD077FD04D00CD007
:1008600006D000201AF4709561957F4F0895F6F731
:10087000909581959F4F0895AA1BBB1B51E107C01E
:10088000AA1FBB1FA617B70710F0A61BB70B881F20
:10089000991F5A95A9F780959095BC01CD010895AF
:0408A000F894FFCFFA
:0208A4005AFFF9
:00000001FF
