:1000000012C02BC02AC029C028C027C026C025C0C6
:1000100024C023C022C021C020C01FC01EC01DC0DC
:100020001CC01BC01AC011241FBECFEDCDBF10E0F5
:10003000A0E6B0E0E6EAF1E003C0C89531960D9283
:10004000A837B107D1F710E0A8E7B0E001C01D92D2
:10005000AB37B107E1F71FD0A5C0D2CFB09B05C029
:100060001092790080E090E00895809179008823D3
:1000700079F480917A008F5F80937A008A3041F41E
:1000800010927A0081E08093790081E090E00895F9
:1000900080E090E00895DF92EF92FF920F931F931C
:1000A0008CEF87BB80E781BBC09A83E083BF109150
:1000B000600000916800F0907000EE24DD2408B626
:1000C00001FEFDCF88B7826088BF909178009117BC
:1000D00029F4133019F088B3806E88BB901729F487
:1000E000033019F088B38C6188BB9F1539F483E025
:1000F000F81609F453C082B3806782BB892F8F5FE3
:1001000080937800843089F410927800112319F0DC
:1001100088B38F7188BB002319F088B3837E88BBB6
:10012000FF2019F082B38F7882BB98DF8823C9F053
:10013000E39489E0E81611F4EE2403C087E08E15FD
:1001400080F0EE2DFF27AE2FBF2FA05ABF4F1C917E
:10015000AE2FBF2FA859BF4F0C91E059FF4FF08031
:10016000AECF88E0E81609F0AACFD3948DE7D81671
:1001700009F0A5CF1F5F143009F0A0CF0F5F043046
:1001800011F010E09BCFF39484E0F81621F410E016
:1001900000E0FF2493CF10E000E090CF84E0809354
:0601A0007800B2CFFFCF92
:1001A6000300000003030300000300030300030031
:0801B600000003030003030035
:00000001FF
